:100000006F004036000000004A0100004C01000073
:1000100000000000000000000000000000000000E0
:1000200000000000000000000000000000000000D0
:1000300062030000000000006203000000000000F6
:10004000620300006203000062030000620300001C
:10005000620300006203000062030000620300000C
:1000600062030000620300006203000062030000FC
:1000700062030000620300006203000062030000EC
:1000800062030000620300006203000062030000DC
:100090006203000062030000620300000000000031
:1000A000511126C022C206C4828282441244A24058
:1000B000310182802A86014593F6150091C232955E
:1000C00085810606F5F9828000000000634E050276
:1000D00063C305042E86AA857D5515C285466378BF
:1000E000B6006356C00006068606E36CB6FE014500
:1000F00063E4C500918D558D85820582F5FA828075
:100100008682C93F2E8582823305A04063D70500D1
:10011000B305B040C1B7B305B0408682653F330533
:10012000A0408282868263C70500634905005D376F
:100130002E858282B305B040E35B05FE3305A04007
:10014000513F3305B0408282000001A001A0EFF2D0
:100150003FF551118545414502C002C202C46126E6
:10016000C1472310F100C1473EC48A858D4737152A
:1001700001403EC2952C31010DBFEFF27FF20545E3
:10018000A926370400208D2AB52ED1371305401F2C
:1001900055269307840103C7070011EB0547238009
:1001A000E7000546C14537150140192EC5B78546FC
:1001B000E31ED7FC238007000146EDB7B7070020F8
:1001C000238C07008280EFF2BFED371402401C4001
:1001D0003707FFFC611193E717001CC05C404145E5
:1001E000F98F5CC01C403707F7FE7D17F98F1CC0E4
:1001F0001C403707FCFF7D17F98F1CC05C4041771E
:100200007D17F98F5CC0B7079F001CC4E1241C4C0C
:100210003706020093E707021CCCB717014003A77B
:100220000740938607401377F7F023A0E74003A722
:1002300007401367070823A0E74089479CCA02C00C
:1002400002C21C4C37070140A16693E717001CCC83
:100250005C43D58F5CC31C404167B7160240D98F01
:100260001CC009679C42F18F3EC2824785073EC091
:10027000924781E78247E397E7FEB71702409C4326
:100280001397E7006358070685473EC21247854724
:100290006310F706B72702409843C176FD16719B9D
:1002A00098C398431367170098C3B7170240D84301
:1002B000D8C3D843758FD8C3D843C166558FD8C328
:1002C0009843B7060001558F98C39843931667006B
:1002D000E3DD06FED843B7160240719BD8C3D8436E
:1002E00013672700D8C32147DC42B18BE39EE7FEAA
:1002F000210165BB02C259BFEFF29FDA37170240F6
:100300005C43370400209146B18B130404016385DC
:10031000D700A1466381D704B7376E019387076082
:100320001CC0B7160240DC420840918313F7F70067
:10033000B707002093870700BA9783C50700DC4200
:1003400093F5F50F93F707083357B50099E3593341
:100350002A8718C099BB5C43B777DC02938707C034
:10036000C1B701A0970100209381414B138181FE09
:1003700013050057970500209385C5C81706002070
:100380001306C6C963FAC5008322050023A05500E1
:1003900011059105E3EAC5FE17050020130505C800
:1003A0009385C1806377B500232005001105E36DB7
:1003B000B5FEB722000093820288739002308D420E
:1003C00073904280970200009382C2C393E232008E
:1003D00073905230EFF03FDF97020000938222DAF1
:1003E00073901234730020309C45611122C226C0E4
:1003F00013F7070113F3F70001C7D8413363E30094
:1004000003D605001377F60F29C78323050001479C
:1004100013048002930480048546B395E600B37606
:10042000B6006392D50293122700BD46B3965600DC
:1004300093C6F6FFB3F37600B3125300B3E3720032
:10044000639787064CC90507A146E317D7FC23200D
:1004500075001307F00F6378C70483234500A14696
:1004600013048002930480040547B312D700337746
:1004700056006394E202139726000117BD45B39519
:10048000E50093C5F5FFB3F375003317E300B363DD
:10049000770063928702232A550085064147E3953A
:1004A000E6FC232275001244824421018280E39CF1
:1004B00097F80CC949BFE39297FE23285500F1BF76
:1004C00019C20CC982804CC98280B707002023AEB4
:1004D000A7008280371702401C430E0593F777F080
:1004E0005D8D08C3828099C5371702401C4F5D8D12
:1004F00008CF8280B7170240984F1345F5FF798DDA
:1005000088CF8280EFF2DFB9B707002003A507018B
:10051000B7157A0093850520753E1375F50F238571
:10052000A18093175500898F8A073E950E05239465
:10053000A180A5BEEFF2DFB637F400E05C40AA85EB
:10054000F99B5CC003D58180B53608C8232404001C
:100550001C4093E717001CC0B7F700E0D843058B99
:0C05600075DF9843799B98C389B60000B2
:04056C00BC010000CE
:100570000102030405060708010203040506070833
:08058000006CDC020000000029
:00000001FF
